:0400000067EF0FF0A7
:10100000003738392F3435362A3132332D23303DED
:101010002B00B3EC0FF0270E3E6E000E3F6E2A0E33
:10102000406E000E416E19EC0DF0546E1F0E3E6EB8
:10103000000E3F6E530E406E000E416E92EC0CF0AF
:10104000546E2A50D8A427EF08F029EF08F03CEF9F
:1010500008F04B50D8A42FEF08F031EF08F03CEF28
:1010600008F0330E3E6E000E3F6E2DEC0EF0546E07
:10107000010E4B6E8FEF08F02A50D8A442EF08F013
:1010800044EF08F08FEF08F04B04D8A44AEF08F0C3
:101090004CEF08F08FEF08F0330E3E6E000E3F6EFF
:1010A0006FEC0EF0546E320E3E6E000E3F6E6FEC23
:1010B0000EF0546E310E3E6E000E3F6E6FEC0EF071
:1010C000546E300E3E6E000E3F6E6FEC0EF0546E9E
:1010D0002F0E3E6E000E3F6E6FEC0EF0546E2E0E15
:1010E0003E6E000E3F6E6FEC0EF0546E2D0E3E6E97
:1010F000000E3F6E6FEC0EF0546E2C0E3E6E000E26
:101100003F6E6FEC0EF0546E2B0E3E6E000E3F6E77
:101110006FEC0EF0546E000E4B6E300E536E4B049F
:10112000D8A495EF08F097EF08F0DAEF08F0300E4A
:101130005318D8A49EEF08F0A0EF08F0DAEF08F0FB
:10114000320E3E6E000E3F6E6FEC0EF0546E310E9E
:101150003E6E000E3F6E6FEC0EF0546E300E3E6E23
:10116000000E3F6E6FEC0EF0546E2F0E3E6E000EB2
:101170003F6E6FEC0EF0546E2E0E3E6E000E3F6E04
:101180006FEC0EF0546E2D0E3E6E000E3F6E6FEC47
:101190000EF0546E2C0E3E6E000E3F6E6FEC0EF095
:1011A000546E2B0E3E6E000E3F6E6FEC0EF0546EC2
:1011B0000BEF08F04B04D8A4E0EF08F0E2EF08F0E2
:1011C00025EF09F0310E5318D8A4E9EF08F0EBEF42
:1011D00008F025EF09F0320E3E6E000E3F6E2DEC4A
:1011E0000EF0546E310E3E6E000E3F6E2DEC0EF082
:1011F000546E300E3E6E000E3F6E2DEC0EF0546EAF
:101200002F0E3E6E000E3F6E2DEC0EF0546E2E0E25
:101210003E6E000E3F6E2DEC0EF0546E2D0E3E6EA7
:10122000000E3F6E2DEC0EF0546E2C0E3E6E000E36
:101230003F6E2DEC0EF0546E2B0E3E6E000E3F6E88
:101240002DEC0EF0546E0BEF08F04B04D8A42BEFEE
:1012500009F02DEF09F070EF09F0320E5318D8A401
:1012600034EF09F036EF09F070EF09F0320E3E6E00
:10127000000E3F6E2DEC0EF0546E310E3E6E000EE1
:101280003F6E6FEC0EF0546E300E3E6E000E3F6EF1
:101290002DEC0EF0546E2F0E3E6E000E3F6E6FEC76
:1012A0000EF0546E2E0E3E6E000E3F6E2DEC0EF0C4
:1012B000546E2D0E3E6E000E3F6E6FEC0EF0546EAF
:1012C0002C0E3E6E000E3F6E2DEC0EF0546E2B0E6B
:1012D0003E6E000E3F6E6FEC0EF0546E0BEF08F09A
:1012E0004B04D8A476EF09F078EF09F053EF0AF039
:1012F000330E5318D8A47FEF09F081EF09F053EFB4
:101300000AF0320E3E6E000E3F6E2DEC0EF0546E63
:10131000030E4A6E080E496E770EE82EFED7492E50
:10132000FCD74A2EFAD700F0320E3E6E000E3F6E0A
:101330006FEC0EF0546E310E3E6E000E3F6E2DECD3
:101340000EF0546E030E4A6E080E496E770EE82EAC
:10135000FED7492EFCD74A2EFAD700F0310E3E6E4A
:10136000000E3F6E6FEC0EF0546E300E3E6E000EAF
:101370003F6E2DEC0EF0546E030E4A6E080E496E51
:10138000770EE82EFED7492EFCD74A2EFAD700F06A
:10139000300E3E6E000E3F6E6FEC0EF0546E2F0E50
:1013A0003E6E000E3F6E2DEC0EF0546E030E4A6E34
:1013B000080E496E770EE82EFED7492EFCD74A2E2E
:1013C000FAD700F02F0E3E6E000E3F6E6FEC0EF05F
:1013D000546E2E0E3E6E000E3F6E2DEC0EF0546ECF
:1013E000030E4A6E080E496E770EE82EFED7492E80
:1013F000FCD74A2EFAD700F02E0E3E6E000E3F6E3E
:101400006FEC0EF0546E2D0E3E6E000E3F6E2DEC06
:101410000EF0546E030E4A6E080E496E770EE82EDB
:10142000FED7492EFCD74A2EFAD700F02D0E3E6E7D
:10143000000E3F6E6FEC0EF0546E2C0E3E6E000EE2
:101440003F6E2DEC0EF0546E030E4A6E080E496E80
:10145000770EE82EFED7492EFCD74A2EFAD700F099
:101460002C0E3E6E000E3F6E6FEC0EF0546E2B0E87
:101470003E6E000E3F6E2DEC0EF0546E030E4A6E63
:10148000080E496E770EE82EFED7492EFCD74A2E5D
:10149000FAD700F02B0E3E6E000E3F6E6FEC0EF092
:1014A000546E0BEF08F04B04D8A459EF0AF05BEF31
:1014B0000AF056EF0BF0340E5318D8A462EF0AF07E
:1014C00064EF0AF056EF0BF0320E3E6E000E3F6EE8
:1014D0002DEC0EF0546E2B0E3E6E000E3F6E2DEC7A
:1014E0000EF0546E030E4A6E080E496E770EE82E0B
:1014F000FED7492EFCD74A2EFAD700F02B0E3E6EAF
:10150000000E3F6E6FEC0EF0546E320E3E6E000E0B
:101510003F6E6FEC0EF0546E310E3E6E000E3F6E5D
:101520002DEC0EF0546E2C0E3E6E000E3F6E2DEC28
:101530000EF0546E030E4A6E080E496E770EE82EBA
:10154000FED7492EFCD74A2EFAD700F0310E3E6E58
:10155000000E3F6E6FEC0EF0546E2C0E3E6E000EC1
:101560003F6E6FEC0EF0546E300E3E6E000E3F6E0E
:101570002DEC0EF0546E2D0E3E6E000E3F6E2DECD7
:101580000EF0546E030E4A6E080E496E770EE82E6A
:10159000FED7492EFCD74A2EFAD700F0300E3E6E09
:1015A000000E3F6E6FEC0EF0546E2D0E3E6E000E70
:1015B0003F6E6FEC0EF0546E2F0E3E6E000E3F6EBF
:1015C0002DEC0EF0546E2E0E3E6E000E3F6E2DEC86
:1015D0000EF0546E030E4A6E080E496E770EE82E1A
:1015E000FED7492EFCD74A2EFAD700F02F0E3E6EBA
:1015F000000E3F6E6FEC0EF0546E2E0E3E6E000E1F
:101600003F6E6FEC0EF0546E300E3E6E000E3F6E6D
:101610002DEC0EF0546E2D0E3E6E000E3F6E2DEC36
:101620000EF0546E030E4A6E080E496E770EE82EC9
:10163000FED7492EFCD74A2EFAD700F0300E3E6E68
:10164000000E3F6E6FEC0EF0546E2D0E3E6E000ECF
:101650003F6E6FEC0EF0546E310E3E6E000E3F6E1C
:101660002DEC0EF0546E2C0E3E6E000E3F6E2DECE7
:101670000EF0546E030E4A6E080E496E770EE82E79
:10168000FED7492EFCD74A2EFAD700F0310E3E6E17
:10169000000E3F6E6FEC0EF0546E2C0E3E6E000E80
:1016A0003F6E6FEC0EF0546E0BEF08F00BEF08F08E
:1016B00000EF00F0010E3C6E34503510D8B463EFEB
:1016C0000BF065EF0BF076EF0BF034C0D9FF35C0AF
:1016D000DAFFDF30E832E832070B366E070E366489
:1016E00074EF0BF076EF0BF0D9EF0BF0000E3C6EC1
:1016F000FAEF0BF034C0D9FF35C0DAFFDF30E83243
:10170000E832070B366E010E376E362A8AEF0BF081
:10171000D8903736362E88EF0BF03750FF0A386EE8
:1017200034C0D9FF35C0DAFFDF50070B396E3950AE
:10173000020D150EF324D96E000EF420DA6EDECF02
:101740003AF0DDCF3BF03AC0D9FF3BC0DAFF38506A
:10175000DF16FAEF0BF034C0D9FF35C0DAFFDF3007
:10176000E832E832070B366E010E376E362ABBEFD1
:101770000BF0D8903736362EB9EF0BF034C0D9FFC6
:1017800035C0DAFFDF50070B386E3850020D150EEA
:10179000F324D96E000EF420DA6EDECF39F0DDCFFF
:1017A0003AF039C0D9FF3AC0DAFF3750DF12FAEF0A
:1017B0000BF034C0D9FF35C0DAFFDFBCE2EF0BF02D
:1017C000E5EF0BF0010EE6EF0BF0000E366E376A18
:1017D0003750000AD8B4EFEF0BF0FAEF0BF03650A9
:1017E000000AD8B47AEF0BF0010AD8B4ABEF0BF0D3
:1017F000FAEF0BF03C501200010E3D6E34503510E4
:10180000D8B405EF0CF007EF0CF018EF0CF034C073
:10181000D9FF35C0DAFFDF30E832E832070B376E28
:10182000070E376416EF0CF018EF0CF07BEF0CF09E
:10183000000E3D6E90EF0CF034C0D9FF35C0DAFFDA
:10184000DF30E832E832070B376E010E386E372A88
:101850002CEF0CF0D8903836372E2AEF0CF0385099
:10186000FF0A396E34C0D9FF35C0DAFFDF50070BED
:101870003A6E3A50020D0B0EF324D96E000EF4208E
:10188000DA6EDECF3BF0DDCF3CF03BC0D9FF3CC091
:10189000DAFF3950DF1690EF0CF034C0D9FF35C0B5
:1018A000DAFFDF30E832E832070B376E010E386EB0
:1018B000372A5DEF0CF0D8903836372E5BEF0CF0FE
:1018C00034C0D9FF35C0DAFFDF50070B396E39500D
:1018D000020D0B0EF324D96E000EF420DA6EDECF6B
:1018E0003AF0DDCF3BF03AC0D9FF3BC0DAFF3850C9
:1018F000DF1290EF0CF03650376E386A3850000A1D
:10190000D8B485EF0CF018EF0CF03750000AD8B4BB
:101910001CEF0CF0010AD8B44DEF0CF018EF0CF0EE
:101920003D501200000E476E000E486E000E466ECF
:10193000000E456E3E503F10D8B4A1EF0CF0A3EF5F
:101940000CF0ACEF0CF040504110D8A4AAEF0CF012
:10195000ACEF0CF0B0EF0CF0000E446E17EF0DF092
:10196000000E476E000E466E46503E24346E000E4A
:101970003F20356E000E366EFCEC0BF0462A030E4F
:101980004664C5EF0CF0C7EF0CF0B4EF0CF0475015
:101990003E24346E000E3F20356E010E366EFCEC98
:1019A0000BF0000E486E48503E24426E000E3F2061
:1019B000436E040E4224346E000E4320356E450EF5
:1019C000366E000E376E8EEC0DF0446E4504D8A4D2
:1019D000ECEF0CF0EEEF0CF005EF0DF04750040DBE
:1019E000010EF324426E100EF420436E485042263E
:1019F000000E432242C0F6FF43C0F7FF40C0D9FFAC
:101A000041C0DAFF0800F5CFDFFF482A030E486423
:101A10000CEF0DF00EEF0DF0D3EF0CF0472A030E94
:101A2000476415EF0DF017EF0DF0B2EF0CF04450D6
:101A30001200000E446E3E503F10D8B422EF0DF05D
:101A400024EF0DF02DEF0DF040504110D8A42BEFF6
:101A50000DF02DEF0DF031EF0DF0000E436E8CEF19
:101A60000DF03EC034F03FC035F0440E366E000E2F
:101A7000376E8EEC0DF020EE02F03E50D9263F502E
:101A8000DA22DF50D8A447EF0DF049EF0DF068EFF0
:101A90000DF04404D8A44FEF0DF051EF0DF058EFC6
:101AA0000DF040C0D9FF41C0DAFFDF6A8AEF0DF0C8
:101AB0004450D8A45EEF0DF060EF0DF08AEF0DF00A
:101AC00040C0D9FF41C0DAFF010EDF6E8AEF0DF092
:101AD00020EE02F03E50D9263F50DA22DE04D8A490
:101AE00074EF0DF076EF0DF08AEF0DF04450D8A4AE
:101AF0007CEF0DF07EEF0DF080EF0DF051EF0DF06B
:101B00004404D8A486EF0DF088EF0DF08AEF0DF0B5
:101B100060EF0DF0010E436E43501200010E3D6E5A
:101B200034503510D8B497EF0DF099EF0DF0B3EFB6
:101B30000DF036503710D8B4A0EF0DF0A2EF0DF035
:101B4000B3EF0DF034C0D9FF35C0DAFFDF30E83233
:101B5000E832070B386E070E3864B1EF0DF0B3EFC3
:101B60000DF0B7EF0DF0000E3D6EE8EF0DF034C054
:101B7000D9FF35C0DAFFDF30E832E832070B386EC4
:101B800034C0D9FF35C0DAFFDF50070B396E39504A
:101B9000020D010EF324D96E000EF420DA6EDECFB2
:101BA0003AF0DDCF3BF03AC0D9FF3BC0DAFFDF505F
:101BB0003C6E382ADEEF0DF0D8903C32382EDCEF48
:101BC0000DF03C50010B36C0D9FF37C0DAFFDF6E95
:101BD0003D501200330E426E000E436EB1EC0EF01B
:101BE000270E3D6E000E3E6E9CEC0FF01F0E426EF7
:101BF000000E436EF1EC0EF0320E426E000E436E9C
:101C0000B1EC0EF0310E426E000E436EB1EC0EF0F0
:101C1000300E426E000E436EB1EC0EF02F0E426E8F
:101C2000000E436EB1EC0EF02E0E426E000E436EAF
:101C3000B1EC0EF02D0E426E000E436EB1EC0EF0C4
:101C40002C0E426E000E436EB1EC0EF02B0E426E67
:101C5000000E436EB1EC0EF01200010E416E3E50CC
:101C60003F10D8A436EF0EF038EF0EF03CEF0EF038
:101C7000000E416E6DEF0EF051C042F03EC0D9FF34
:101C80003FC0DAFFDF50070B406E42504018F80BA0
:101C90004018426E3EC0D9FF3FC0DAFFDF30E83265
:101CA000E832070B406E40464046404642504018DE
:101CB000C70B4018426E429C3EC0D9FF3FC0DAFFBE
:101CC000DFAC02D0428E01D0429E420E346E000E36
:101CD000356E010E366EFCEC0BF041501200010E19
:101CE000416E3E503F10D8A478EF0EF07AEF0EF020
:101CF0007EEF0EF0000E416EAFEF0EF050C042F0DE
:101D00003EC0D9FF3FC0DAFFDF50070B406E4250A4
:101D10004018F80B4018426E3EC0D9FF3FC0DAFFB2
:101D2000DF30E832E832070B406E4046404640461E
:101D300042504018C70B4018426E429C3EC0D9FF2B
:101D40003FC0DAFFDFAC02D0428E01D0429E420E8D
:101D5000346E000E356E000E366EFCEC0BF041500A
:101D60001200010E456E42504310D8A4BAEF0EF097
:101D7000BCEF0EF0C0EF0EF0000E456EEFEF0EF070
:101D800052C046F042C0D9FF43C0DAFFDF50070B14
:101D9000446E46504418F80B4418466E42C0D9FFB2
:101DA00043C0DAFFDF30E832E832070B446E4446C6
:101DB0004446444646504418C70B4418466E469C59
:101DC00042C0D9FF43C0DAFFDFAC02D0468E01D05B
:101DD000469E460E3E6E000E3F6E31EC0FF04550B3
:101DE0001200000E476E000E486E42504310D8A4F9
:101DF000FCEF0EF0FEEF0EF002EF0FF0000E466E5D
:101E00002FEF0FF0000E476E475042243E6E000E3B
:101E100043203F6E31EC0FF0472A030E476413EF67
:101E20000FF015EF0FF004EF0FF0000E486E485062
:101E30004224446E000E4320456E040E4424346E4A
:101E4000000E4520356E5AEC0BF0466E482A030E04
:101E500048642DEF0FF02FEF0FF017EF0FF0465003
:101E600012003E503F10D8B438EF0FF03AEF0FF0A9
:101E70004BEF0FF03EC0D9FF3FC0DAFFDF30E83252
:101E8000E832070B406E070E406449EF0FF04BEF4E
:101E90000FF04FEF0FF0000E416E65EF0FF03EC0F8
:101EA00034F03FC035F05AEC0BF0416E3EC034F0D8
:101EB0003FC035F03EC0D9FF3FC0DAFF000EDFBEA5
:101EC000010E366EFCEC0BF0416E41501200040E18
:101ED000F66E1F0EF76E000EF86E00EE01F010EEBB
:101EE00033F00900F5CFEEFFE550E150FAE100EEE6
:101EF0004BF0090EEE6AE806FDE1000EF86E0001F7
:101F000009EF08F0800F810F820F830F840F890F74
:101F10008A0F8B0F8C0F8D0F920F930F940F950FCD
:101F2000960F030B131B636B737B410100013A3265
:071F30002A221A120A02091D
:101F3800010E3F6E3D503E10D8A4A5EF0FF0A7EF5D
:101F48000FF0ABEF0FF0000E3F6EB1EF0FF03DC09A
:101F580034F03EC035F05AEC0BF03F501200EAEC7A
:041F68000DF0120066
:020000040030CA
:0E000000FF02091EFF8181FF0FC00FE00F40BD
:00000001FF
